:020000040800F2
:100000001C59002065590008E5520008EF5200080D
:10001000F9520008035300080D530008A2AEFDAFCB
:100020000000000000000000000000008D500008EB
:10003000175300080000000025510008093A000885
:100040002153000833530008455300085753000854
:10005000695300087B5300088D5300089F53000824
:10006000B1530008C3530008D5530008E7530008F4
:10007000F95300080B5400081D5400082F540008C1
:100080004154000853540008655400087754000890
:10009000895400089B540008AD540008BF54000860
:1000A000D1540008E3540008F5540008075500082F
:1000B000195500082B5500083D5500084F550008FC
:1000C00061550008735500088555000897550008CC
:1000D000A9550008BB550008CD550008DF5500089C
:1000E000F155000803560008155600082756000869
:1000F000395600084B5600085D5600086F56000838
:100100008156000893560008A5560008B756000807
:10011000C9560008DB560008ED560008FF560008D7
:1001200011570008235700083557000847570008A3
:10013000595700086B5700087D5700088F57000873
:10014000A1570008B3570008C5570008D757000843
:10015000E9570008FB5700080D5800081F58000811
:1001600031580008435800085558000867580008DF
:10017000795800088B5800089D580008AF580008AF
:10018000C1580008D3580008E5580008F75800087F
:10019000095900081B5900082D5900083F5900084B
:1001A000B5370008515900081D3800087047A0F104
:1001B0000400FFF7FBBF704710B5044612F0AEFB1A
:1001C000204610BDA0F10400F6E770B5C5680446EE
:1001D000806801F007F80146284600F073FBE568E7
:1001E000A06800F0FDFF0146284600F02BFBE56803
:1001F000A06800F0F9FF0146284600F0B7FB012196
:10020000E06800220B4600F000FCE06801210022BB
:100210000223BDE8704000F0F8BB70B5044680686A
:1002200000F0E6FF0646A06800F0E0FF0546314614
:10023000E0682A4600F037FFE068314600F022FB14
:10024000E0682946BDE8704000F066BBA0F10400FC
:10025000FFF7E3BF0B4AC16030B502F10805243255
:10026000002442604FF41662846002614FF47A7297
:10027000056082616622C4614261062202624262B6
:1002800030BD00BFD87501088068022100F0B2BF00
:1002900070B50446806800F0A3FF0546A06800F032
:1002A000A3FF2669B54220DA236A58430544B542C4
:1002B00007DB0122E06800213546134600F0A5FB6C
:1002C00009E063691844854205D10121E0680A46C6
:1002D0000B4600F09AFBE068294600F0B3FAA068EC
:1002E0002946BDE8704000F09FBF70BD70B5044660
:1002F000806800F075FF0546A06800F075FF66692C
:10030000B54220DD236A58432D1AB54207DC01218E
:10031000E068002235460B4600F077FB09E02369D0
:10032000181A854205D10121E0680A460B4600F003
:100330006CFBE068294600F085FAA0682946BDE814
:10034000704000F071BF70BD38B50446806800F0A1
:1003500049FF0546A06800F047FFA269954220DAF0
:10036000636A58430544954207DBE0680021012297
:10037000022300F04AFBA56909E0E36918448542BD
:1003800005D10121E06802230A4600F03EFBE06847
:10039000294600F097FAA0682946BDE8384000F0E9
:1003A00055BF38BD70B50446806800F01BFF054698
:1003B000A06800F019FFE669B54220DD636A584382
:1003C0002D1AB54207DCE06801210022022300F06B
:1003D0001CFB354609E0A369181A854205D10121A5
:1003E000E06802230A4600F010FBE068294600F0AE
:1003F00069FAA0682946BDE8704000F027BF70BDCB
:1004000038B50546806800F0EFFE0A2813D006DCF8
:1004100002280CD005280CD0012810D111E0322878
:100420000BD064280BD0192809D132240AE0052406
:1004300008E00A2406E0192404E0642402E0012410
:1004400000E00224A868214600F012FFE868214677
:10045000BDE8384000F08ABA38B50446806800F03C
:10046000BDFE0228054606D1A068032100F0C2FEA9
:10047000E068294607E0032809D1A068022100F0BE
:10048000B9FEE0680121BDE8384000F081BA38BD0E
:1004900070B51E4603680446BDF910505B6B984763
:1004A0002368204631469A6B9047236820462946A8
:1004B000DB6BBDE87040184781807047C180704792
:1004C00070B5036804461546DB6A984723682046E2
:1004D00029461B6BBDE87040184701817047418178
:1004E0007047704770477047704770478388C91AD4
:1004F000C38830B5D21A056809B26B6D12B2BDE877
:10050000304018474FF6FF73838103844384136898
:10051000C3611060704770477047704770477047FD
:1005200090F825201AB190F8242002B11860704785
:10053000012070470022028042808280C280704782
:1005400070B5036804461546DB6A98472368204661
:1005500029465B6EBDE8704018470D207047704714
:100560000E20704770477047704710B5C2688368A7
:1005700012F0010F40684FEA620218BF845810441D
:1005800018BFE358BDE81040184743682BB1836893
:100590002BB9C06800F00100704718467047012071
:1005A000704710B5044612F0B9F9204610BD10B5D9
:1005B000044612F0B3F9204610BD10B5044612F0FF
:1005C000ADF9204610BD000008B50A4B1B6823B9E1
:1005D0000948E621094A0A4B08E00A4B02881B88B1
:1005E0009A4205D30448E721044A074B02F098F8E1
:1005F00008BD00BF0C5100203676010808760108BE
:100600007176010814510020B376010810B5044634
:10061000FFF7DAFF044B22881B6813F81220034B04
:100620001B6853F8220010BD0C5100201851002007
:1006300073B5036805460C461E6BC38C02A820F8F0
:10064000043DFFF7E3FF0368DB6A9847211A284659
:1006500009B2B04702B070BD10B50446FFF7B4FF51
:10066000024B22881B6853F8220010BD4C11002059
:100670002DE9F0414FF6FF73C78C04469F421BD013
:1006800000F126052846FFF7C1FF06462846FFF77A
:100690009BFF2846FFF7E0FF094B024630681B68C6
:1006A000C569304603EB4703AC465978636BC1F329
:1006B0008101BDE8F04160470020BDE8F08100BF46
:1006C0000C51002010B54FF6FF73C28C04469A42BD
:1006D00009D02630FFF7C0FF626B01462046BDE817
:1006E00010400BF0E3B8002010BD00002DE9F04FE2
:1006F0004FF6FF73C68C8FB004469E420F464BD018
:1007000000F126052846FFF781FF8046002843D0E8
:10071000284694F82E90FFF757FF214B2846B4F84F
:100720002CA01B6894F830B003EB46035E78C6F348
:100730000101C6F381060591FFF746FF94F83130B9
:1007400094F82F008DF83430164B05998DF82960F8
:1007500007AEA26A1B688DF8330030468DF828106A
:1007600021460B92CDF824808DF83290ADF830A060
:100770008DF82AB0D3F808800EF03DFE2846FFF72A
:100780006BFF09AB019040460093636B02933B46BD
:1007900096E806000CF09AFC0FB0BDE8F08F00BFA1
:1007A0000C51002068500020F8B500F134040746D1
:1007B0002046FFF72BFF05462046FFF74DFF2B682D
:1007C000064628469B6A314698472B6804463146C0
:1007D000DB6B2846984710FB04F02B683146C4B207
:1007E00028465B6A9847204487F84100F8BD00F529
:1007F000AE73994202D1C06BFFF74ABD00F590730A
:10080000994202D1C06BFFF771BD00F5FE739942AA
:1008100002D1C06BFFF798BD00F50E73994202D16B
:10082000C06BFFF7BFBD00F56473994202D1C06B86
:10083000FFF7E6BD00F51D73994202D1C06BFFF7CB
:100840000BBE704737B50B460A210446642593FB5F
:10085000F1F292FBF1F001FB102001FB12320621B4
:10086000009004F6DC100192054A93FBF5F30FF0BB
:100870002FFE04F5CC7003B0BDE830400EF014BD7F
:100880000577010837B50B460A210446642593FB1A
:10089000F1F292FBF1F001FB102001FB1232062174
:1008A000009004F520600192054A93FBF5F30FF0E8
:1008B0000FFE04F53A7003B0BDE830400EF0F4BC12
:1008C000057701080B4664210A2293FBF1F130B54C
:1008D000044685B04FF47A7591FBF2F002FB1011DB
:1008E000009193FBF2F191FBF2F002FB101002FB7E
:1008F00011320621019004F6E8100292054A93FB9A
:10090000F5F30FF0E5FD04F52C7005B0BDE83040BF
:100910000EF0CABC0D7701080B4664210A2293FB36
:10092000F1F130B5044685B04FF47A7591FBF2F0E1
:1009300002FB1011009193FBF2F191FBF2F002FB2C
:10094000101002FB11320621019004F6F4100292FD
:10095000054A93FBF5F30FF0BBFD04F5487005B0B5
:10096000BDE830400EF0A0BC0D77010810B504467C
:100970000B4600F60C200421044A0FF0A9FD04F5F3
:100980005670BDE810400EF08FBC00BF0A7701081A
:10099000022930B5044687B015D1012305ADADF865
:1009A000081000F51D70ADF80C300423009502A965
:1009B000ADF8103003AAADF8143004AB0AF0C3FF51
:1009C000C834092316E001291DD1022305ADADF875
:1009D000081000F51D70ADF80C300423009502A935
:1009E000ADF8103003AAADF8143004AB0AF0ABFF39
:1009F000C834082320462946ADF814300BF071F8AE
:100A000020460EF051FC07B030BD012B2DE9F04F10
:100A1000044687B000F5AE7800F5907500F5FE76D7
:100A200043D180F8801105AB80F8442171B9DAB167
:100A30000A2200934046ADF808200B22ADF80C20A6
:100A40000C22ADF81020ADF8142046E062B90A225D
:100A50000093ADF808200B22ADF80C200622ADF86B
:100A60001020ADF814201EE0052305AF4FF0010A59
:100A70004FF00209ADF810304046ADF8143002A92D
:100A800004AB009703AAADF808A0ADF80C900AF0EB
:100A90005AFF0323ADF808A0ADF80C90ADF8103064
:100AA000ADF814300097284648E0022B4BD180F86F
:100AB000201205AB80F85C2200F50E7981B9EAB10D
:100AC0000A2230460093ADF808200B22ADF80C2026
:100AD0000C22ADF81020ADF8142002A96A442FE0D2
:100AE00062B90A220093ADF808200B22ADF80C2061
:100AF0000622ADF81020ADF814201EE0052305AF46
:100B00004FF0010B4FF0020AADF810303046ADF84F
:100B1000143002A904AB009703AAADF808B0ADF8F1
:100B20000CA00AF010FF0323ADF808B0ADF80CA03C
:100B3000ADF81030ADF814300097484602A903AA6A
:100B400004AB0AF000FF40460EF0AEFB30460EF05C
:100B5000ABFB28460EF0A8FB04F50E700EF0A4FBCC
:100B600007B0BDE8F08F4901B0F8502089B291423A
:100B70000AD0C26CA0F85010002A05DD03680021DD
:100B8000013AD3F89030184770472DE9F04F00F143
:100B9000400C00254FF0050B8FB00446C0F8245AD6
:100BA000C0F828BA2946C0F82C5A2A466046CDF823
:100BB00024C0FFF785FC4FF4F07346200EAFA4F875
:100BC00048304FF4887301460246A4F84A304FF08B
:100BD00007080FF08BFC04F170035A21A066184639
:100BE00005930A463C26FFF76BFC27F8048D059811
:100BF00039460AF076FF04F19C035A224FF48771BC
:100C000018460693FFF75CFC06983946ADF8348029
:100C10000AF067FF04F1F40329462A46039396235A
:100C200003984FF0020900935023FFF731FC04F5BD
:100C3000907300960A21049318465A223346FFF710
:100C400027FC4FF001034FF0030A0BAAADF8283040
:100C50000AA900970CAB0498ADF82C90ADF830A021
:100C6000ADF834A00AF06FFE4FF01103A4F85881DC
:100C70000398A4F85A31049909F024F804F5AE73E6
:100C800000960A21049318461E223346FFF700FC03
:100C90004FF001030BAA0097ADF828300AA9049879
:100CA0000CABADF82C90ADF830B0ADF834B00AF024
:100CB0004AFE4FF01103A4F894810398A4F89631EA
:100CC000049908F0FFFF04F5CC73294652460493BB
:100CD0001E23049800935023FFF7DAFB2A46294687
:100CE00028460FF003FCA4F8C451C4F8C0012946FB
:100CF00004980AF08DFC04F6DC13A4F8DC59C4F85F
:100D0000CC310398049908F0DDFF04F5E8732A4616
:100D10004FF4C87104939B23049800935023FFF76A
:100D2000B7FB04F5FE7300960A21079318462322A9
:100D30003346FFF7ADFB4FF001030BAA0097ADF868
:100D400028300AA907980CABADF82C90ADF830B05C
:100D5000ADF834B00AF0F7FD4FF0110304F50E7B47
:100D6000A4F83482A4F836320498079908F0AAFF50
:100D70000096584633460A215F22FFF789FB4FF061
:100D800001030BAA0097ADF8283058460AA90CAB0E
:100D9000ADF82C90ADF830A0ADF834A00AF0D3FD3A
:100DA0004FF01103A4F8708204985946A4F87232E7
:100DB00004F52C7B08F086FF222358462946009331
:100DC00001225023FFF764FB2A46294628460FF0EC
:100DD0008DFBA4F8DC52C4F8D8024FF0010158464C
:100DE0000AF016FC04F6E813594604F5647BA4F8EF
:100DF000E859C4F8E432049808F064FF00965846B5
:100E00002A46334640F22311FFF742FB4FF001031D
:100E10000CA93A465846ADF83030ADF834900AF097
:100E200080FCA4F8C4935846FFF7BEFCFF2001469F
:100E300002460FF05BFBC4F8C803FF2001460246E0
:100E40000FF054FB04F55673C4F8CC0350210793FC
:100E50001B23079811220093D323FFF719FB2A467F
:100E6000294628460FF042FBA4F88453C4F88003B7
:100E70005146079804F51D7A0AF0CAFB04F60C23C4
:100E8000A4F80C5A5046C4F88C334FF4CD71009638
:100E90003346CB2204F5DB66FFF7FAFA4FF0010385
:100EA000ADF82C904FF00409ADF8283050460CAB4B
:100EB00000970AA90BAAADF83090ADF834900AF06B
:100EC00042FDA4F8AC82A022A4F8AE8204F1C808C6
:100ED0004FF4D2714046FFF7F3FA0823394604F580
:100EE00075774046ADF834300AF0FBFD3846642192
:100EF0005A22FFF7E5FA29462A46C8200FF0F6FAEB
:100F0000642183B238460A4600F00EFAFA233846C6
:100F10002946009332222B4600F051FA04F58060F6
:100F20004946FFF720FE30464FF48C715A22FFF7F6
:100F3000C7FA29462A46C8200FF0D8FA642183B29E
:100F400030460A4600F0F0F9642330462946009303
:100F500032222B4600F033FA04F20470494604F5BD
:100F60004879FFF700FE04F53A737321CD22089308
:100F70002223089800935023FFF78AFA2A4629462D
:100F800028460FF0B3FAA4F81453C4F81003294606
:100F900008980AF03DFB04F52063A4F8005A48467F
:100FA000C4F81C33322340F22711CD220093502382
:100FB000FFF76EFA2A46294628460FF097FAA4F85A
:100FC0004C53C4F848034FF0010148460AF020FB97
:100FD00004F6F413DDF824C0A4F8F459251DC4F870
:100FE000543304F6142361462846C4F86032C4F82A
:100FF0002432C4F8B833C4F84831C4F88431C4F892
:101000009C3208F05FFE2846059908F05BFE2846F2
:10101000069908F057FE2846414608F053FE284638
:10102000039908F04FFE2846049908F04BFE284625
:10103000594608F047FE2846079908F043FE28461F
:10104000514608F03FFE2846394608F03BFE284648
:10105000314608F037FE2846089908F033FE284646
:10106000494608F02FFEE06BFFF70EF90FB0BDE820
:10107000F08F0000064B10B50446036000F5DB60FE
:1010800000F0FAF804F5757000F0F6F8204610BD8F
:101090002077010810B50446FFF7ECFF204611F059
:1010A0003DFC204610BD2DE9F843D0F8243A904687
:1010B000D0F8282A0446013389469342C0F8243ADE
:1010C00041DB002300F5806604F204750A27C0F8AE
:1010D000243AD0F82C3A0133322BC8BF0123C0F890
:1010E0002C3A3046D4F82C1A00F0CEFBD4F82C1A47
:1010F0003046013100F0C8FBD4F82C1A30460231DA
:1011000000F0C2FBD4F82C1A284600F0BDFBD4F83E
:101110002C1A2846013100F0B7FBD4F82C1A2846C7
:10112000023100F0B1FBD4F82C1A304699FBF7F2EB
:1011300000F026FC2846D4F82C1A98FBF7F2BDE8FC
:10114000F84300F01DBCBDE8F883000070B56623CD
:1011500000250126044605602A4685600221436079
:101160000561C56046618661304602F0A9FF054B06
:1011700002212A461860304602F0A2FF024B186096
:10118000204670BDD0100020CC10002037B5054699
:10119000006802AC03689B68984700220D4B24F856
:1011A000022D21461868134603F010F901284FF06C
:1011B0000002214604BFBDF80630EB60064B1868FC
:1011C000134603F003F9012804BFBDF806302B6174
:1011D00003B030BDD0100020CC10002080697047D3
:1011E0004068704780687047406970470069704781
:1011F000C0687047022907B5816102D18DF80710D8
:1012000004E003290BD101238DF80730054B186842
:1012100028B100220DF10701134602F087FF03B049
:101220005DF804FB80510020074B07B5416018684A
:10123000ADF8061028B100220DF10601134602F0A8
:1012400075FF03B05DF804FB7C510020074B07B528
:1012500081601868ADF8061028B100220DF1060172
:10126000134602F063FF03B05DF804FBE851002071
:101270004161704712207047084B10B50360044667
:10128000074B00F5387003600AF02EF82046054B36
:1012900040F82C3F00F0C2FC204610BD58770108F2
:1012A000B88E0108E07E010810B50446FFF7E4FFA0
:1012B000204611F033FB204610BD00000023012220
:1012C00010B583800446C380038143818381C38139
:1012D0000382438243618361C36180F82430836267
:1012E0000F4B80F8252040F82C3B00F075FC0D4B8F
:1012F00004F53B72E36204F1940300210C3323F8FC
:10130000101C23F80E1C9342F7D104F53870FF220D
:1013100009F092FBFF23204684F8003310BD00BF84
:1013200058770108E07E010873B51D46036804463E
:1013300016469B6B09B29847236831B204F538769C
:10134000DB6B2046984729463046FF2209F067FBB1
:1013500004F12C05B4F90A200021B4F9083028461C
:1013600000920A46FFF794F82846314609F0C2FF7A
:10137000284604F18801322200F076FDB4F97C3071
:10138000402B0AD0A26F4023002AA4F87C3004DD51
:1013900028460021013A00F0E8FC4FF4C87200230F
:1013A00028466FF005010093134600F079FD23688D
:1013B000204629465B6E02B0BDE8704018472C30CD
:1013C00000F06EBD704770474160704770477047CE
:1013D00070470123037270477047C268836812F038
:1013E000010F40684FEA620218BF8158104418BFCD
:1013F000CB58184743682BB183682BB9C06800F0FD
:1014000001007047184670470120704710B5044628
:1014100011F084FA204610BD10B5044611F07EFA92
:10142000204610BD10B5044611F078FA204610BDD4
:1014300010B50446D0F82401FFF7A8FE2046BDE809
:1014400010400CF02FBF10B50446D0F80C0158B175
:101450000368DB68984738B1D4F80C0103689B68CF
:1014600098470023C4F80C3110BD0000094A0260FF
:1014700000228280C280028142818281C2810282F6
:10148000428242618261C26180F82420012280F898
:1014900025207047389A010838B504460D46FFF7F5
:1014A000E5FF064B2046294623604FF6FF73E38491
:1014B00084F828300AF015FB204638BDD891010881
:1014C00010B50446FFF7D2FF00234FF6FF72204607
:1014D000A362A38584F82F3084F8303084F831304B
:1014E000024BE28484F82E20236010BD407801086E
:1014F000F7B5044600250EF083F9474B2046E56317
:1015000002AE4FF6FF7740F8403BFFF7AFFF434B8B
:1015100026F8047D04F170002364FF233146A5669C
:1015200084F8663084F86C50FFF7B6FF314604F15A
:101530009C00ADF80470FFF7AFFF3146ADF80470C2
:1015400004F1C800364FFFF7A7FF04F1F400354E51
:10155000FFF78CFFC4F8F470C4F81C5104F59070C8
:101560000AF098FA04F5AE700AF094FA04F5CC701B
:10157000FFF7A6FFC4F89861C4F8CC5104F5E870F1
:10158000FFF774FFC4F8D071C4F8F85104F5FE7089
:101590000AF080FA04F50E700AF07CFA04F51D706A
:1015A0000AF078FA04F52C70FFF78AFFC4F8B062ED
:1015B000C4F8E45204F53A70FFF782FFC4F8E86219
:1015C000C4F81C5304F54870FFF77AFFC4F8206391
:1015D000C4F8545304F55670FFF772FFC4F858630B
:1015E000C4F88C5304F564700AF0C0FB04F5757000
:1015F000FFF764FE04F5DB60FFF760FE0A4B204650
:10160000C4F8184AC4F8143A084BC4F8205AC4F86D
:101610001C3A03B0F0BD00BF2077010828900108F4
:1016200088870108C078010840790108EF070008A1
:1016300070B5044616460D460CF08EFF0B4A00238B
:10164000C4F8206120461460094AC4F808312260B9
:10165000084AC4F80C31C4F81021C4F81431C4F895
:101660001831C4F81C31C4F8245170BDF05000206A
:1016700000780108E8770108064BC0F81401C0F8AB
:1016800018310023C0F81C3100F58873C0F80C3104
:10169000704700BFDD1700082DE9F0470746906846
:1016A0009946884603681446DDF820A01B6A9847CF
:1016B000B0F5236F04D24348DA21434A434B09E093
:1016C000606803681B6A9847272805D83D48DB21D6
:1016D0003D4A3F4B01F024F8E06803681B6A9847D5
:1016E0000B2804D83748DC21374A3A4BF2E70CF094
:1016F0000DFF0CF011FFD9F8000010B10368DB6892
:101700009847D9F8000010B103681B6898473868FB
:1017100010B103685B699847D8F8000010B10368FE
:101720005B689847386810B103681B689847D8F819
:10173000000010B103689B689847E06800210368C7
:101740005B6A9847054620B1002343600372224B31
:101750000360A068002103685B6A9847064608B1E9
:10176000FFF7C6FE6068002103685B6A984704467D
:1017700010B13146FEF76EFDC9F80050C8F80040C0
:101780003E600CB1231D00E02346CAF8003030460D
:10179000C4F808A03368F463DB68984723682046E0
:1017A0001B689847294630460EF08DF92B6828466D
:1017B0001B6998470CF0AAFE03689B6A984720466D
:1017C000BDE8F0876E7A010870790108A97A0108EE
:1017D000377B0108DA7B01085879010807B5034611
:1017E000D0F824210548009203F58471D3F8202114
:1017F000034BFFF751FF03B05DF804FBF4500020EA
:101800000451002080F82E10704790F82E00704789
:101810008180006B10B10368DB6A18477047C18094
:10182000006B10B103681B6B1847704710B5036855
:101830000446D3F8A8309847E26C002A08DD2368F4
:1018400020460021013AD3F89030BDE810401847F7
:1018500010BD10B503680446D3F8AC309847E26C6D
:10186000002A08DD236820460021013AD3F8903091
:10187000BDE81040184710BD0023C364006B10B1D1
:101880000368DB6F1847704770B5036804460E465F
:10189000D3F8A4309847E36C0546984228DA0C2325
:1018A000626C4343D358B34222D1002805DD23683C
:1018B0002046691ED3F89830984723682046294669
:1018C000D3F898309847236820462946D3F8A030AB
:1018D0009847E36C002B0DDD002D236820462A4637
:1018E000D3F89030CCBF05F1FF310021984701E0DB
:1018F000002070BD012070BDF7B5044603680E4698
:101900001546D3F888706846214632462B46B847BC
:101910002368204669461B699847206B28B10368F5
:1019200031462A46D3F88C30984703B0F0BDC164E5
:10193000006B18B10368D3F894301847704730B57E
:101940000346C06CD8B15D6C0C2303FB005353F805
:101950000C3C994213DC421E002090420DDC022414
:10196000831893FBF4F30C245C432C59A14201DA55
:101970005A1EF2E702DD581CEFE730BD184630BDB5
:101980002DE9F8431646C36C826C044688469342A0
:1019900069DA476C33B10C2505FB037252F80C2C45
:1019A000914217DD0C222046534347F80380616CB7
:1019B000E36C02FB03135E602368E16CD3F89430A0
:1019C00001319847E26C23682046911E013AD3F812
:1019D000903046E00368D3F8A4309847636C4543E1
:1019E00007465A195B59434505DA22489321224A92
:1019F000224B00F095FE17DD236820463946D3F8C8
:101A000098309847236820463946D3F89C30984749
:101A1000636C2046791E43F80580636C1D446E603C
:101A20002368D3F890301BE05368B3421ED000F116
:101A3000FF3923682046D3F89830494698472368F1
:101A400020463946D3F898309847636C204649467B
:101A500043F80580636C1D446E602368D3F89030B2
:101A60007A1C984702E00020BDE8F8830120BDE819
:101A7000F88300BF687D01087D7C0108897D01082D
:101A80002DE9F041C56C0446836C0E469D4205DB92
:101A900014484FF4A971144A144B0BE0002904DBDD
:101AA000A94202DC0C236B4306E00E4840F25311BE
:101AB0000D4A0F4B00F034FEB542A3F10C0708D0DD
:101AC000626C013D13443A4407CA83E807003B4671
:101AD000F2E723682046E16CD3F894300131BDE889
:101AE000F0411847687D01089E7E0108C27D01080B
:101AF000037E010870B50C1E054611DBC36C013B6B
:101B00009C420DDA0368621CD3F88C309847286B2E
:101B100030B103682146D3F89830BDE870401847CB
:101B200070BD000070B50C1E054602DBC16C8C4216
:101B300006DB0E4840F25D110D4A0E4B00F0F0FD41
:101B400003680139D3F8943098470C236343EA6C57
:101B500003F10C06944208DA6A6C013413443244EF
:101B600007CA83E807003346F1E770BD687D0108C6
:101B70006A7E0108377E010838B5CB6C0446002B1D
:101B800005DDB1F9565015B1B1F958502DB9002302
:101B900023806380A380E38005E00A68013BD2F8DC
:101BA00088500022A847204638BD4B010181A0F88B
:101BB0005230006B18B10368D3F8A830184770474B
:101BC0004B014181A0F85430006B18B10368D3F881
:101BD000AC3018477047000010B5044609F048FCC7
:101BE0000D4B4FF0FF3220462360002362632363D6
:101BF000A263E26322646364A364A4F85030A4F88F
:101C00005230A4F85430A4F85630A4F85830FFF7F6
:101C100033FE204610BD00BFB87C0108034B10B551
:101C20000446036009F042FC204610BDB87C010860
:101C3000B0F856300BB918467047426B1BB2B0F87B
:101C40005200891A490111FB00F090FBF3F0704734
:101C5000B0F858300BB918467047C26B1BB2B0F8D9
:101C60005400891A490111FB00F090FBF3F0704712
:101C700008B50C23426C59435158FFF7D9FF08BDF2
:101C800038B505460C46FFF7F3FF0C226B6C02FBE0
:101C9000043434F9023C184438BD38B505460C46C6
:101CA000FFF7E6FF0C226B6C02FB0434B4F90A3038
:101CB000184438BD38B505460C46FFF7D9FF0C224D
:101CC0006B6C00B202FB043434F9023CC01A38BD1C
:101CD00038B505460C46FFF7CBFF0C226B6C00B203
:101CE00002FB0434B4F90A30C01A38BD08B50C231D
:101CF000426C03FB01214968FFF7AAFF08BD38B514
:101D000005460C46FFF7F2FF0C226B6C00B202FB9B
:101D10000434B4F90830C01A38BD38B505460C464D
:101D2000FFF7E4FF0C226B6C00B202FB043434F9C1
:101D3000043CC01A38BD38B505460C46FFF7D6FF3F
:101D40000C226B6C02FB043434F9043C184438BD9B
:101D500038B505460C46FFF7C9FF0C226B6C02FB39
:101D60000434B4F90830184438BD2DE9F14FC36C80
:101D7000904621EAE17704469A42A8BF03F1FF3872
:101D800047456EDCB0F90830002B6AD0B0F90A3054
:101D9000002B66D0426B836B9A4262D0C26B036C9D
:101DA0009A425ED00C26BA467E43C2454FD00AF115
:101DB000010920464946FFF799FF0546514620464E
:101DC000FFF794FF281A494685B22046FFF750FFD7
:101DD000834651462046FFF74BFFC0EB0B00002324
:101DE00080B210FB00F215FB0522B2F5803F2CBF3C
:101DF0004FF080414FF4804101EB030E724524BF48
:101E00000EEB0103CEEB020289084FEA5303F3D134
:101E10009BB2CBB1B4F850101BB2626C11FB05F54C
:101E20000221324495FBF3F52DB295FBF1F5558176
:101E3000B4F85050626C15FB00F0324490FBF3F0A4
:101E400000B290FBF1F010810C36CA46ADE7236872
:101E5000204639465246D3F88C3001B0BDE8F04FE9
:101E6000184701B0BDE8F08F002341648264C36469
:101E7000006B0028F8D1704770B5049E551AF41A0B
:101E80006D016401ADB2A4B241638263C3630664B1
:101E9000A0F85650A0F85840006B0028F4D170BD4F
:101EA00037B504461846069B656B8D4208D1A56B75
:101EB000954205D1E56B9D4202D1256C854210D03B
:101EC00000902046FFF7D8FFE26C002A09DD236866
:101ED00020460021013AD3F8903003B0BDE83040ED
:101EE000184703B030BD2DE9F043C76CABB00446D2
:101EF0000D46012F01DC0124E4E0013F002606F13C
:101F000001092046B5F800804946FFF7B1FEB4F953
:101F1000503002220FFA88F893FBF2F303FA80F0B4
:101F2000202300B290FBF3F080451EDDB9454E46FC
:101F30001BDAE4E707F1FF392B88B5F80480204667
:101F400049469844FFF794FEB4F9503002221FFA34
:101F500088F893FBF2F3C01A20230FFA88F800B236
:101F600090FBF3F0804502DA4F46B742E2DCBE4216
:101F7000C1DA2A462146684608F0C4FD31462046AB
:101F8000FFF78BFE054631462046FFF7B8FE29468F
:101F9000751C0246684608F07BFF29462046FFF77D
:101FA0006FFE804629462046FFF7B7FE41460246AF
:101FB000684608F0EBFEBD420FD029462046FFF7E9
:101FC0006CFE804629462046FFF799FE41460246B0
:101FD000684608F0DBFE0135DFE7B4F95030002B2E
:101FE00048D139462046FFF765FE0546394620466A
:101FF000FFF746FE2BB200B2834208DD3946204689
:10200000FFF799FE29460246684608F0BFFE3946AA
:102010002046FFF735FE0546216C2046FFF718FEE7
:1020200029460246684608F0B1FE31462046FFF7D1
:1020300034FE0546216C2046FFF70AFE294602467B
:10204000684608F0A3FE31462046FFF741FE0546EC
:1020500031462046FFF721FE2BB200B283422ADA36
:1020600031462046FFF774FE29460246684608F0CE
:102070008DFE20E0013DB5421DDB6F1C2046394638
:10208000FFF718FE804639462046FFF754FE4146CA
:102090000246684608F07AFE29462046FFF718FEF9
:1020A000074629462046FFF753FE39460246684652
:1020B00008F06CFEDEE7684609F01DF80446684645
:1020C00009F054F820462BB0BDE8F0832DE9F74F16
:1020D0008B46814608461146904600930224FFF73E
:1020E000C7FDBBF950704FF0200A009997FBF4F739
:1020F000C01B07B25846FFF7BBFDBBF95060414615
:1021000096FBF4F606FA80F006B25846FFF7EEFDAD
:10211000BBF95050414695FBF4F5401B05B25846BB
:10212000FFF7E4FDBBF9503093FBF4F404FA80F0C0
:1021300097FBFAF796FBFAF604B2BFB2B6B295FB7C
:10214000FAF594FBFAF408F10108009B984541DC8C
:1021500058464146FFF7CAFD4FF0020ABBF950301E
:10216000202293FBFAF3C01A00B290FBF2F08542F2
:102170000EDB584641460192FFF7B8FDBBF95050BF
:10218000019A95FBFAFACAEB000005B295FBF2F54D
:1021900058464146FFF7AAFD4FF0020ABBF95030FE
:1021A000202293FBFAF303FA80F000B290FBF2F0E6
:1021B0008442C8DC584641460192FFF797FDBBF9BF
:1021C0005040019A94FBFAFA0AFA80F004B294FBA8
:1021D000F2F4B8E701360134A9F800704846A9F8CE
:1021E0000250F71B651BA9F80470A9F8065003B04C
:1021F000BDE8F08F034B10B504460360FFF70EFDFA
:10220000204610BDE07E010810B50446FFF7F2FF3E
:10221000204610F083FB204610BD2DE9F043C76C2B
:10222000ABB004460D46012F01DC0124B5E0013FAF
:10223000002606F101092046B5F800804946FFF75F
:1022400017FDB4F9503002220FFA88F893FBF2F32D
:1022500003FA80F0202300B290FBF3F080451EDDEE
:10226000B9454E461BDAE4E707F1FF392B88B5F88C
:102270000480204649469844FFF7FAFCB4F95030F0
:1022800002221FFA88F893FBF2F3C01A20230FFAF8
:1022900088F800B290FBF3F0804502DA4F46B7426F
:1022A000E2DCBE42C1DA2A462146684608F02AFC32
:1022B00031462046FFF7F1FC054631462046FFF740
:1022C0001EFD2946751C0246684608F0E1FD2946B8
:1022D0002046FFF7D5FC804629462046FFF71DFD26
:1022E00041460246684608F051FDBD420FD02946DE
:1022F0002046FFF7D2FC804629462046FFF7FFFC28
:1023000041460246684608F041FD0135DFE70C23EF
:102310006F1E5D43B742A5F10C0537DB07F10109DC
:1023200020464946FFF7A4FC636C49462B44B3F9A9
:102330000A80C8EB00001FFA80F82046FFF7D6FCA1
:10234000636C41462B44B3F9082002FA80F26846D8
:1023500008F01CFD39462046FFF78AFC636C3946BD
:10236000013F2B44B3F90A80C8EB00001FFA80F844
:102370002046FFF7BBFC636C41462B44B3F90820B1
:1023800002FA80F2684608F001FDC3E7684608F0EB
:10239000B2FE0446684608F0E9FE20462BB0BDE8D0
:1023A000F083704730B5134D89B02C6814F00104E8
:1023B0001CD1284600F09BF9C0B104230E492246E7
:1023C000009401930D4B029404930D4B03940593D9
:1023D0000A23069407940B480DF09CFB284600F056
:1023E00087F908480849094A10F092FA054809B0E7
:1023F00030BD00BF3C11002020AB010854AB0108E8
:1024000080A40108F8100020A32300085C1100201C
:1024100030B5154D89B02B6813F0010420D1284642
:1024200000F065F9E0B1042310491B2202940093E7
:1024300001930F4B039404930E4B0F4805934FF6F3
:10244000FF63069342F22603079314230DF062FB09
:10245000284600F04DF908480849094A10F058FA92
:10246000054809B030BD00BFD410002068AB01089A
:1024700088A4010830AB010818110020A32300082C
:102480005C11002030B5134D89B02C6814F00104A4
:102490001CD1284600F02BF9C0B104230E49224676
:1024A000009401930D4B029404930D4B03940593F8
:1024B0002823069407940B480DF02CFB284600F0C7
:1024C00017F908480849094A10F022FA054809B0E6
:1024D00030BD00BF3811002058AB010884A40108AA
:1024E0001CAB0108D8100020A32300085C110020B9
:1024F00010B5044610F012FA204610BD70470329AB
:1025000009D8DFE801F006020406FFF7BBBFFFF7BA
:1025100049BFFFF77DBF0020704710B5044610F09B
:10252000FDF9204610BD00000048704724AD0108A9
:1025300004207047004870474011002010B5054C3A
:10254000FFF766FF2060FFF79DFF6060FFF72AFF3F
:10255000A06010BD4011002038B50A4B0A4A18800F
:102560000A4B1A60FFF7E0FF0546FFF7E3FF04465A
:10257000FFF7DEFF064B1D60064B1C60064B188004
:1025800038BD00BF5011002014AD01084C110020CF
:102590000C5100201851002014510020014A024B18
:1025A0001A60704714AD01084C11002000487047B4
:1025B000A47F01080D20704708B50146034B186839
:1025C00001B1012108F05AF8012008BD685000202F
:1025D00003220120002108B501F072FD074A1060B6
:1025E00020B100210A460B4601F0A0FD0120002287
:1025F000014601F065FD024B186008BD5411002032
:1026000058110020034B00214FF0FF3218680B4691
:1026100001F0DCBE54110020034B002118680A466B
:102620000B4601F083BD00BF54110020034B002175
:1026300018680A460B4601F0C9BE00BF54110020BD
:1026400007B5002302A941F8043D084B186801F0C2
:1026500075FE019B3BB14FF08052054B1A60BFF3F2
:102660004F8FBFF36F8F03B05DF804FB5411002050
:1026700004ED00E00B4B07B5186880B1002302AAF7
:10268000094942F8043D01F0F5FD019B3BB14FF0D3
:102690008052064B1A60BFF34F8FBFF36F8F03B0AA
:1026A0005DF804FB581100202000002004ED00E03C
:1026B00070B50022074D084C13462868214601F0EA
:1026C00085FE286821464FF0FF320023BDE87040A8
:1026D00001F07CBE5811002020000020FEE7FEE73C
:1026E0000020014902F020BAB92500087047704760
:1026F0007047FEE710F00303074918BFC3F1040356
:102700000A6818BFC0181318044883423ABF10461D
:102710000B604FF0FF30704724000020145500205C
:10272000FEE70000024B18680368DB68184700BF2B
:10273000685000201FB501F085FA002401F072F9FD
:1027400000F0BCFA00F06CFA00F090FA00F0D4FB54
:1027500000F0FAFB00F04CF80F484FF461610AF00A
:10276000E3FA02230D494FF40072029403940C48DB
:102770008DE81800234601F0F9FF032309494FF4BF
:1027800000720294039408488DE81800234601F073
:10279000EDFF02F00FF8FEE768120020A8800108A4
:1027A00025270008B08001086928000810B50F48E7
:1027B00011F002FA0023C0B2DAB2824214D20B4AFC
:1027C000995C4FF06042D2F8804EE4070AD5D2F807
:1027D000002ED20706D54FF0604214680CB900BF36
:1027E000F9E711700133E7E710BD00BF8451002005
:1027F00008B502210022012001F062FC084B0221F1
:1028000000221860012001F05BFC064B022100222F
:102810001860012001F054FC034B186008BD00BF94
:102820007C510020E85100208051002007EE100A62
:10283000B5EEC07AF1EE10FA11D40A4B4FF47A7269
:102840001B6893FBF2F307EE903AF8EEE77AB4EEEA
:10285000E77AF1EE10FACCBF022001207047022087
:10286000704700BF7C2000202DE9F04FC84C0021AC
:10287000C84F2046A2462DED028B85B006F092FB94
:102880003846002106F08EFB236807225A63002297
:102890003B685A63C04D002604AC286824F8026DDA
:1028A00002F0C6F8BD4B214632461868334601F0A7
:1028B0008DFD01281CD1BDF80E80B8F1010F08D1A3
:1028C000B749B84811F01AF9B7484FF48071424639
:1028D0000AE0B8F1020F0BD1B449B24811F00EF979
:1028E000B1484FF48071324604F08EFEFFF75EFF70
:1028F000286802F09DF8AE4B002221461868134666
:1029000001F064FD012816D1AA4BBDF80E001A682B
:10291000824210D0186010F077F9DAF8006098A3BE
:10292000D3E9002310F000FB0022A34B10F0D2F9F2
:1029300010F06AFC7063286802F07AF89F4B00225E
:1029400021461868134601F041FD012815D19C4B22
:10295000BDF80E001A6882420FD0186010F054F9CA
:102960003E6887A3D3E9002310F0DEFA0022924BE1
:1029700010F0B0F910F048FC7063286802F058F8C5
:102980009049884811F0BAF88F4EFFF70FFF8F4833
:1029900004F0CAF88E4804F0C7F88C4804F047F9F0
:1029A0000546306810F042F980468946284610F006
:1029B0001BF902460B4640464946864D0FF0D8FFAC
:1029C00010F042FC3060824804F031F983462868F8
:1029D00010F02CF980468946584610F005F9024659
:1029E0000B4640464946DFF828820FF0C1FFDFF86A
:1029F000249210F029FC2860744804F0F9F8744817
:102A000004F0F6F8D8F8003030680133C8F8003028
:102A100010F00CF902460B4662486F4911F048F875
:102A2000FFF7C4FE286810F001F90B4602466B4917
:102A30005C4811F03DF8FFF7B9FED8F8002068496E
:102A4000584811F035F8FFF7B1FE99F90030D8F881
:102A500000209A42FFF61EAF6249524811F04EF82C
:102A6000DFF8B4B1FFF7A2FE99F90030D6ED007A95
:102A700006EE903A95ED006A9FED5B7AF8EEE66A15
:102A8000DFED5A5ADFF89491C7EEA67AC6EE266AB1
:102A9000C7EE877A86EE877A67EEA57ACBED007A65
:102AA00027EE257A89ED007A9FED517A67EE877AD5
:102AB000B0EE478AFCEEE77A17EE903AADF80E30AA
:102AC0004C4B186820B100222146134601F02EFB22
:102AD0004949344811F012F8FFF768FE9BED007A7F
:102AE000D9ED007A77EE677A17EE900A10F09EF82B
:102AF00025A3D3E9002310F017FA10F0A5FB3F4BF4
:102B0000019018600093FFF791FE3D4A0228009B58
:102B100008BF1268019908BF1A60D3ED007A18BF88
:102B2000116067EE887AFCEEE77A17EE903AADF81E
:102B30000E30344B186820B100222146134601F0B4
:102B4000F5FADBF8000010F071F802460B46154864
:102B50002D4910F0ADFFFFF729FED9F8000010F065
:102B600065F80B46024629490E4810F0A1FFFFF711
:102B70001DFE0023C8F80030002333602B6089E677
:102B80000000000000C8A940FCA9F1D24D62503FEE
:102B9000F01100202C12002028000020805100207D
:102BA000C08001088451002000040240D080010848
:102BB0007C5100209420002000407F40E8510020FC
:102BC0007C200020E2800108882000206011002085
:102BD000A81100208C200020F08001081681010837
:102BE0003C8101085B81010800F07F450000044240
:102BF0000000C842D0100020708101087820002019
:102C000090200020CC100020858101089F810108C0
:102C1000982000202C00002080200020842000200C
:102C20007FB50F4C00250F4A4FF440330126204654
:102C30002561A5612562E562E560E661256366615F
:102C400084E82C00084BA36203F0B2FE69462046DC
:102C500002968DE8600003F0EDFF04B070BD00BF88
:102C600060110020002001400100000F30B5104825
:102C70004FF440330F4C85B001250F4A84E809001A
:102C800000232046A262A3602361A3612362E36262
:102C9000E3602363E561656103F08AFE082369460A
:102CA000204602958DE8280003F0C4FF05B030BD32
:102CB00000220140A81100200100000F294B4FF411
:102CC0008071F0B51A6B8BB0274F012442F00202DD
:102CD000264D384600261A631A6B02F00202009253
:102CE000009A1A6B42F001021A631A6B02F0010299
:102CF0000192019A1A6B42F480721A631A6B02F401
:102D000080720292029A1A6B42F004021A631A6BE2
:102D100002F004020392039A1A6B42F020021A6333
:102D200000221B6B03F020030493049B04F06CFC53
:102D300000222846C02104F067FC4FF48073384617
:102D400005A9059306940794089604F091FBC02307
:102D5000284605A9069405930794089604F088FB75
:102D60000BB0F0BD003802400004024000080240F1
:102D700008B5032004F022F800216FF00B000A468A
:102D800004F02EF800216FF00A000A4604F028F83B
:102D900000216FF009000A4604F022F800216FF0CC
:102DA00004000A4604F01CF800216FF003000A46F4
:102DB00004F016F800216FF001000A4604F010F844
:102DC00000214FF0FF300A46BDE8084004F008B883
:102DD00000B51D4A89B00368934211D11B4B1C48B2
:102DE0005A6C42F480725A645B6C03F480730193F2
:102DF000019B01230393032304930223059314E00F
:102E0000144A93421CD1114B13485A6C42F480620D
:102E10005A645B6C03F480630293029B4FF48063FB
:102E20000393032304930223059303A904F020FBD7
:102E3000002112200A4603F0D3FF122004F008F804
:102E400009B05DF804FB00BF0020014000380240DB
:102E5000000002400022014000140240036882B0DA
:102E6000B3F1804F0BD103F50E331A6C42F001021F
:102E70001A641B6C03F001030093009B0CE0074AEB
:102E8000934209D1064B1A6C42F002021A641B6C81
:102E900003F002030193019B02B07047000400405D
:102EA000003802407FB50368B3F1804F0BD14FF477
:102EB00000430E48019302230293002303930493DB
:102EC000012305930BE00A4A93420BD11023002201
:102ED000084801930223039202930492059301A9E7
:102EE00004F0C6FA07B05DF804FB00BF0000024022
:102EF000000400400004024030B54FF0804000253F
:102F0000104C01238BB0256184E829004FF4FA733B
:102F10002046E36005F062FF694620460095029571
:102F200006F040F9602303A92A462046039304953E
:102F30000595079506F0A2F82046FFF7B3FF0BB002
:102F400030BD00BFF011002030B511480025114CF4
:102F500001238BB0256184E829004FF4FA732046E1
:102F6000E36005F03BFF694620460095029506F0B8
:102F700019F9602303A92A46204603930495059571
:102F8000079506F07BF82046FFF78CFF0BB030BDAD
:102F9000000400402C1200204068704741607047D8
:102FA000521A02EB5300B0FBF3F07047024B1B6860
:102FB000586A00EB400070479C20002070470000DA
:102FC0000F4B13B51A6C0F4C42F0010220461A64E5
:102FD0004FF0FF321B6CE26003F001030193019B91
:102FE0004FF08043236000232361A36063600123CB
:102FF000636105F0DDFE204605F069FE02B010BDFC
:10300000003802409C20002010B504460FF086FCDA
:10301000204610BD10B5036804461B6931B19847BE
:10302000A26863689B1A1844606010BD9847A0604E
:1030300010BD704738B5044602F016FE054602F092
:103040001FFE81B2A8B203F08BF808B901232371E7
:1030500038BD10B504460FF061FC204610BD70B5B8
:1030600004798CB00E4615466CB101A803F0CEF879
:103070009DF8043033B1BDF810303360BDF8063030
:103080002B6000E01C4620460CB070BD03681B6C32
:10309000184703685B6A1847104B002230B5C3F825
:1030A0008420BFF34F8FD3F88020C2F34E33C2F396
:1030B000C902590143F6E0700840114640EA8175A3
:1030C000064C11F1FF31C4F87452F7D213F1FF33FB
:1030D000EFD2BFF34F8FBFF36F8F30BD00ED00E035
:1030E00070470000034B044A13601A6842F40072F0
:1030F0001A60704700B00240DC200020034B40F211
:10310000EF101B78002B18BF00207047D82000203C
:1031100010B504460FF002FC204610BD2DE9F8431F
:10312000444B0D46B1F80C801B68CF8998680E7E21
:1031300003681B6A984710282A7E6B691BD19BB2D3
:103140004FF01F0E03F01F04D90AC3F34513C4EB5D
:103150000424C1EB0121C3EB032394FBFEF444EAF6
:10316000026291FBFEF442EA04443F2293FBF2F335
:1031700044EA032201E043EA0262DFF8BC904FF028
:10318000806CDFF8B8E0022300243F21CEF888C02D
:1031900022F07F4289F8393007EB0847D9F8003030
:1031A00010281C60D9F8003099601C619C61DC61BA
:1031B0005C625C63A968D9604FEA06611C6141F4F6
:1031C000803141F00901D96108BF02211A6218BF9C
:1031D00001215F64AA685A616A8AC8EB02029A6197
:1031E0004FF07F4292FAA2F2B2FA82F296400E4378
:1031F0005E625A69DA639A691A645A6A5A63CEF847
:1032000008C0FFF749FFD9F80020136823F44033C2
:1032100043F400331360D9F80020136843F40C53CF
:103220001360D9F80020136843F001031360BDE870
:10323000F88300BF68500020DC20002000E100E09F
:103240002DE9F3470E6882460C46202E07D0402E0B
:1032500005D0321F57425741802E06D000E001278B
:10326000A6F580735E425E4100E001265D4B1B685F
:10327000986803681B6A984723688046402B14D0DF
:1032800004D8042B0AD0202B0FD011E0802B19D0AA
:10329000B3F5807F0CD14FF0090915E010280CBF61
:1032A0004FF002094FF001090EE04FF000090BE06A
:1032B000B8F1100F4FF000050CBF4FF002094FF0AE
:1032C000010903E04FF00A094FF40035E3894FF09C
:1032D0008062AAF8A43ADFF818A1434B5046C3F81D
:1032E000882004F037F8B8F1100FA28950460CBFBF
:1032F00002230123CAF804505546CAF80830638AED
:10330000CAF82C909B1ACAF80C30238AA2899B1AFF
:10331000CAF82830354BCAF8003003F04CFF0FB91B
:10332000002E3ED0237EFF2B17BF022300232B63EA
:10333000237E0CBF2B636B631EB3B8F1100F217E8D
:1033400063691BD19BB24FF01F0E03F01F02D80A16
:10335000C3F34513C2EB0222C0EB0020C3EB0323EF
:1033600092FBFEF242EA016190FBFEF241EA024268
:103370003F2193FBF1F342EA032301E043EA0163B7
:103380006B63638AB8F1100FA2894FF000011848EF
:10339000A3EB0203AB610CBF02230123EB6104F03A
:1033A0000FF80121124804F00BF80F4B4FF0806228
:1033B0009A60FFF771FEE189A38907B946B1A26857
:1033C0000093019113466168094803F042FF05E04C
:1033D000009107486168A26803F01CFF02B0BDE8D5
:1033E000F08700BF6850002000E100E000B002401C
:1033F000DC2000203C4B2DE9F0411B6806460C46C2
:103400008AB0986803681B6A9847E38910280746C2
:10341000A6F8A43A23680CBF4FF002084FF0010849
:10342000082B0CD103AD0FCC0FC594E8070033680F
:1034300085E807005B6C304603A9984751E02B4DA7
:103440004FF080622A4B2846C3F8882003F082FFA1
:103450004FF44033102FA2896B600CBF022301236D
:10346000AB60638AC5F82C80A3EB0203EB604FF0DE
:103470000003AB621F4B2B606369257E1AD19BB2A0
:103480001F2003F01F02D90AC3F34513C2EB022227
:10349000C1EB0121C3EB032392FBF0F242EA056585
:1034A00091FBF0F245EA02423F2593FBF5F342EA35
:1034B000032501E043EA05650C4803F07CFE012189
:1034C0000A4803F07DFF4FF08062094B9A60FFF7D6
:1034D000E3FDE289A389294600920448A26803F02B
:1034E00099FE0AB0BDE8F08168500020DC20002081
:1034F00000E100E000B0024010B50446104B0C3073
:1035000060222146606041F8203B07F0E1F904F1B8
:103510003C0204F6BC2100231C3242F8243C8A42BF
:10352000F9D194F8A72A2046C4F8A03A63F3000220
:10353000A4F8A43A84F8A63A84F8A72A10BD00BFDC
:1035400008820108012380F8641080F86530704714
:10355000406803681B68184700207047436B0BB135
:103560000846184770470000104B002230B5C3F8DA
:103570008420BFF34F8FD3F88020C2F34E33C2F3C1
:10358000C902590143F6E0700840114640EA8175CE
:10359000064C11F1FF31C4F87452F7D213F1FF3326
:1035A000EFD2BFF34F8FBFF36F8F30BD00ED00E060
:1035B000014B986A704700BF84680140024B0122AA
:1035C000996243F8602C704784680140064A536C46
:1035D000D0689BB2C0F30A000130834226BF181A9C
:1035E00080B20020704700BF006801400849094AC6
:1035F000CB680948C3F30A03013B9BB213800A69F5
:10360000C2F30A02013A02800B6401234B63704744
:10361000006801401E2100201C210020704708B5D1
:1036200006F092FCBDE80840FFF79EBF10B50446C7
:1036300007F00AF823682046DB6FBDE81040184702
:1036400006F07CBC10B504460FF068F9204610BDAA
:1036500030B590F8642090F830309A420E4B1A78CA
:103660000CD0C2B90D4A0E4914880E480C800E4D7C
:10367000018804801180012229800BE05AB1094899
:10368000074A0188084D1180044A148811800022DD
:103690002C8004801A7030BD6D50002070500020C6
:1036A000765000206E5000207450002008B531B9CB
:1036B0000A484FF441710A4A0A4BFFF731F8C263D6
:1036C0000032816318BF01220364074900330A7086
:1036D00018BF0123054A137008BD00BF9E82010870
:1036E00050820108D7820108655000206C500020EC
:1036F000F8B5561E9DF81850B6B21F2E19D80124E1
:10370000154FB440154E14F0803F08D114F00B0F44
:103710000FD03C88624334880732D21003E03F88E0
:10372000D20834887C43624381634BB11144C16346
:1037300007E00B484FF437710A4A0B4BFEF7F0FFD6
:10374000C36315B10A44026400E00564074A1370BC
:10375000074B1D70F8BD00BF705000206E50002058
:103760009E820108D48301080F8301086550002060
:103770006C500020034B902283F85A2383F858237F
:10378000704700BF00E100E0044B4FF08072C3F8C7
:1037900088204FF08062C3F88820704700E100E085
:1037A000034B4FF080729A604FF080629A607047CE
:1037B00000E100E0154B10B59A6BD20724D5012229
:1037C000134CDA63134A196C1288914212D1124ACF
:1037D00012881A64226892F85630013382F8563003
:1037E000FEF748FF206806F02FFF0020BDE81040DC
:1037F00000F04ABB1A64002000F050FB2068036808
:10380000BDE810409B69184710BD00BF006801402B
:10381000685000201E2100201C210020084B10B5FC
:103820005A6892070BD502229A60FFF79DFE054B5E
:103830001B6858680368BDE810405B69184710BDF5
:1038400000B00240685000207047012070470C20F3
:1038500070470C2303FB0100083070470C2303FB67
:10386000010008307047012070474FF42360704713
:103870004FF4236303FB0100083070474FF42363C8
:1038800003FB010008307047012070472820704773
:10389000282303FB010008307047282303FB0100A5
:1038A00008307047034B10B50446036006F064F916
:1038B000204610BDA084010810B50446FFF7F2FFB2
:1038C00020460FF02BF8204610BD0000034B10B52A
:1038D0000446036006F050F9204610BD68840108D4
:1038E00010B50446FFF7F2FF20460FF017F8204608
:1038F00010BD0000034B10B50446036006F03CF910
:10390000204610BD3084010810B50446FFF7F2FFD1
:1039100020460FF003F8204610BD0000084B10B5FC
:103920000446036000F67C20FFF7BCFF04F144006E
:10393000FFF7CCFF04F11400FFF7DCFF204610BDB9
:10394000D884010810B50446FFF7E8FF20460EF0C2
:10395000E5FF204610BD00002DE9F0411F4D2B680A
:10396000DB0738D42846FEF7C2FE002833D01C4CB3
:103970001C4B04F5296604F1140004F1440804F614
:103980007C276060C4F80880E7602661236006F049
:10399000F5F8154B4046636106F0F0F8134B3846D6
:1039A000636406F0EBF8124B04F6B8312246C4F813
:1039B0007C3A3046FDF73CFE04F6B830FDF7C6FB16
:1039C0003046FDF759FE2846FEF792FE204609498B
:1039D000094A0EF09DFF0248BDE8F081602D0020ED
:1039E00020210020D884010830840108688401085F
:1039F000A08401081D3900085C11002010B50446A0
:103A00000EF08CFF204610BD08B502F0B5FF044B48
:103A10001B781BB1BDE8084001F0B6BB08BD00BF74
:103A2000802D0020F7B54C4E4C4C356815F0010543
:103A300053D13046FEF75BFE00284ED0484B4FF482
:103A4000F072256130466360464B6561A360464B6A
:103A50002583E3600123658384F8453084F846308C
:103A600084F8543084F85730404BA583E58325848F
:103A70006584A58484F82650A562A5856563A56341
:103A8000E563256484F8445084F8555084F8565012
:103A900084F8585084F8595084F85A5084F85B5090
:103AA00084F85C50256684F865501C60304B3149C1
:103AB0001A804FF4887384F830500B802E490D70B3
:103AC0002E490A802E4A13802E4B2360FEF710FEEB
:103AD00020462D492D4A0EF01BFF2048002606F0F7
:103AE000F5FBFEF763FD0546FEF764FD0096014613
:103AF0003246284633460CF0E7FD254A254B304632
:103B000001251A60FEF728FD23480CF047FDFFF75A
:103B100023FF0AF0FBFC0146104806F01BFB1F4B7D
:103B20004FF0404110221D70236800950B48DF6E56
:103B30002B46B84784F8586084F846600223184E34
:103B400084F85430304684F84550FFF739FA26613E
:103B500084F85C5003B0F0BD5C2D0020F42C0020F4
:103B6000882D0020842D0020742D00206850002016
:103B7000705000206E5000206D50002076500020C4
:103B800074500020388301081D3600085C110020A5
:103B9000642D0020105100207C2D0020802D00205D
:103BA000682D0020254B30B51A6C95B002240025F5
:103BB00042F0805208A81A641B6C03F080530193F2
:103BC000019B1F4B1A6842F440421A601B6808941C
:103BD00003F440430E940F950293029B0123129429
:103BE0000B93102313940C9308231093D823119351
:103BF00004F0E2F904F0A8F90F23072103A80393C6
:103C00004FF4A053049406934FF480530595079303
:103C100004F0A8FB04F054FC4FF47A73B0FBF3F00B
:103C200003F02EF9042003F067F94FF0FF30294626
:103C30002A4603F0D5F815B030BD00BF0038024069
:103C4000007000402DE9F04300248FB002F082FEA6
:103C5000FFF7A8FF02F0B4FC02F0FAFB5C2003F0CF
:103C600003F902F03FFA02F0E3F8019401F0FCFFDF
:103C70000394029002F004F84FF04043049007943C
:103C80000A93FF238DF8344006938DF835408DF864
:103C9000364001F0E9FF0B9001F0F2FF022301A989
:103CA00022460C9005934FF4806347480893052300
:103CB000099304F01DF901F0EFFF00F0D7F8434B32
:103CC000C3F88440BFF34F8FD3F88020C2F34E3344
:103CD000C2F3C902590143F6E0700840114640EAB8
:103CE00081743A4D11F1FF31C5F86042F7D213F1FA
:103CF000FF33EFD2BFF34F8F6B6943F480336B61B7
:103D0000BFF34F8FBFF36F8FBFF34F8FBFF36F8F33
:103D10000024C5F850426B6943F400336B61BFF374
:103D20004F8FBFF36F8F6B6A4FF00108284E032748
:103D300023F480334FF0104901A86B62736823F0BD
:103D4000010373601B238DF804808DF80C3002236F
:103D5000CDF808908DF805308DF80F708DF8134070
:103D60008DF812408DF811408DF80E408DF80D4001
:103D70008DF8104003F09AF8172301A88DF80480FD
:103D80008DF80C30CDF808908DF80F708DF8134039
:103D90008DF812808DF811408DF805708DF80E4069
:103DA0008DF80D408DF8104003F080F8052343F2A4
:103DB000D20273606B6A43F480336B624FF020432E
:103DC0001A600FB0BDE8F083EC51002000ED00E078
:103DD00090ED00E038B5164C164B174D22461748AB
:103DE000174903600EF094FD2846FFF785FB224635
:103DF000284614490EF08CFD002513482246134B2B
:103E00001349036005710EF083FD12482246124BE0
:103E100045601249856003600EF07AFD104B224622
:103E2000104811490360BDE838400EF071BD00BF75
:103E30005C110020987F0108882D00207C2D002037
:103E4000FD240008E1300008742D0020F0810108F5
:103E500033300008682D0020C8810108BD2F0008FC
:103E600080A20108842D00204938000808B50020F0
:103E700001F08CFE034B00201870BDE8084001F0F3
:103E8000B3BE00BF30380020012804D1024B1870A7
:103E9000002001F09FBE704730380020012804D177
:103EA0000020024B187001F09FBE70473038002090
:103EB000012802D1002001F0A1BE704700F10803E3
:103EC0004FF0FF324360C3600361002382600360F0
:103ED000704700230361704743684B609A688A60AB
:103EE0009A68516099600861036801330360704704
:103EF0000A68531C30B501D1036907E000F10803DB
:103F00005C682568954201D82346F9E75A684A60FB
:103F100091608B605960086103680133036030BDB4
:103F200042688168036991608268416851605A689B
:103F3000824204BF82685A60002202611868013818
:103F40001860704738B51546026C044632B90568EA
:103F500045BB406800F084FF656024E06DB980686F
:103F60000FF0A6FCA268236C134462689342A3601E
:103F700018D323682846A36015E0C0680FF098FCAA
:103F8000236CE2685B4221681A448A42E2603EBFC9
:103F900062689B18E360022D04D1A36B13B1A36B7D
:103FA000013BA3630020A36B0133A36338BD10B5AD
:103FB000026C034672B1C4681444C4604068844211
:103FC00028BF1868BDE8104028BFD8600846D968E7
:103FD0000FF06EBC10BD10B5044601F067F8A36C7D
:103FE000002B0CDD636A53B104F1240000F052FE93
:103FF00008B100F0E9FEA36C013BA364EFE74FF0CA
:10400000FF33A36401F078F801F050F8636C002BE3
:104010000CDD236953B104F1100000F03BFE08B140
:1040200000F0D2FE636C013B6364EFE74FF0FF33B7
:104030006364BDE8104001F05FB8000038B50D467C
:10404000044650B94FF4A07372B683F31188BFF3DE
:104050006F8FBFF34F8F62B6FEE701F027F8206C39
:10406000E36B22684343A260D1181B1A13446160BA
:104070000021E3604FF0FF33A1636364A36485B95B
:104080002369B3B104F1100000F004FE012810D13F
:104090004FF08052094B1A60BFF34F8FBFF36F8F01
:1040A00007E004F11000FFF709FF04F12400FFF717
:1040B00005FF01F021F8012038BD00BF04ED00E04C
:1040C000F8B50D461746064650B94FF4A07372B6C0
:1040D00083F31188BFF36F8FBFF34F8F62B6FEE794
:1040E00011B14843013000E00846543000F008FFA9
:1040F000044630B10DB920600EE000F154030360B6
:104100000AE04FF4A07372B683F31188BFF36F8F88
:10411000BFF34F8F62B6FEE7E663204625640121B8
:10412000FFF78CFF84F850702046F8BD2DE9FF4161
:10413000884601921E46044650B94FF4A07372B6E9
:1041400083F31188BFF36F8FBFF34F8F62B6FEE723
:1041500061B9036C53B14FF4A07372B683F3118845
:10416000BFF36F8FBFF34F8F62B6FEE7022E02D10F
:10417000E36B012B6ED1002700F098FFA26BE36B7D
:104180009A4201D3022E1AD1204641463246FFF709
:10419000D9FE636A33B104F1240000F07BFD0128ED
:1041A00009D100E038B14FF08052314B1A60BFF3B3
:1041B0004F8FBFF36F8F00F09FFF012055E0019DEF
:1041C00015B900F099FF43E017B902A800F0A6FD69
:1041D00000F092FF00F024FB00F068FF636C0133F5
:1041E00001D100236364A36C013301D10023A364D4
:1041F00000F082FF02A801A900F0A8FD18BB00F0A2
:1042000055FFA76BE56B00F077FFAF4215D104F1C6
:104210001000019900F004FD2046FFF7DCFE00F0DD
:1042200093FB08B10127A7E74FF08052104B1A60AB
:10423000BFF34F8FBFF36F8FF4E72046FFF7CBFE3E
:1042400000F082FBEEE72046FFF7C5FE00F07CFBA6
:1042500000200AE04FF4A07372B683F31188BFF315
:104260006F8FBFF34F8F62B6FEE704B0BDE8F081F9
:1042700004ED00E02DE9F0410E4690461D4604464F
:1042800050B94FF4A07372B683F31188BFF36F8FE8
:10429000BFF34F8F62B6FEE761B9036C53B14FF4C1
:1042A000A07372B683F31188BFF36F8FBFF34F8F84
:1042B00062B6FEE7022D0DD1E36B012B0AD04FF45D
:1042C000A07372B683F31188BFF36F8FBFF34F8F64
:1042D00062B6FEE700F0D4FFEFF311874FF4A0734E
:1042E00072B683F31188BFF36F8FBFF34F8F62B63F
:1042F000A26BE36B9A4201D3022D1AD120463146BC
:104300002A46FFF71FFEA36C01330DD1636A73B118
:1043100004F1240000F0BEFC48B1B8F1000F06D053
:104320000120C8F8000005E0A36C0133A36401205C
:1043300000E0002087F31188BDE8F081F8B50E4653
:10434000044650B94FF4A07372B683F31188BFF3DB
:104350006F8FBFF34F8F62B6FEE7056C55B14FF418
:10436000A07372B683F31188BFF36F8FBFF34F8FC3
:1043700062B6FEE700F084FFEFF311874FF4A073FD
:1043800072B683F31188BFF36F8FBFF34F8F62B69E
:10439000A26BE36B9A4215D2A36B0133A363A36CA8
:1043A00001330AD1636A5BB104F1240000F072FCAE
:1043B00030B12EB10120306005E0A36C0133A3645D
:1043C000012000E0284687F31188F8BD2DE9FF4160
:1043D0000E4601929846044650B94FF4A07372B647
:1043E00083F31188BFF36F8FBFF34F8F62B6FEE781
:1043F00029B9036C002B40F08A800F463AE0002771
:1044000038E017B902A800F089FC00F075FE00F052
:1044100007FA00F04BFE636C013301D100236364A3
:10442000A36C013301D10023A36400F065FE02A850
:1044300001A900F08BFC002862D100F037FEA56BCB
:1044400000F05AFE002D55D1236833B900F02EFE3E
:10445000606800F0BFFC00F04FFE04F124000199F9
:1044600000F0DEFB2046FFF7B6FD00F06DFA0028F5
:1044700037D0012700F01AFEA36B63B32046314604
:10448000E568FFF794FDB8F1000F10D1A36B013B75
:10449000A363236813B900F027FD60602369B3B1FB
:1044A00004F1100000F0F6FB012810D107E0636A68
:1044B000E56063B104F1240000F0ECFB38B14FF08B
:1044C00080521A4B1A60BFF34F8FBFF36F8F00F00B
:1044D00013FE012026E0019D002D92D100F00CFE7C
:1044E00013E04FF08052114B1A60BFF34F8FBFF3B0
:1044F0006F8FBEE72046FFF76EFD00F025FAB8E7A4
:104500002046FFF768FD00F01FFA00200AE04FF494
:10451000A07372B683F31188BFF36F8FBFF34F8F11
:1045200062B6FEE704B0BDE8F08100BF04ED00E034
:10453000064A13681968064B11B94FF0FF3203E0C1
:104540001268D268D26852681A6070473838002002
:10455000300000200E4B10B51A68044650600D4A1A
:104560001268904207D20C4A10681968BDE81040E2
:104570000431FFF7BDBC094A106819680431FFF720
:10458000B7FC074B1A68944200D21C6010BD00BFF4
:10459000E83800200439002008390020383800208D
:1045A000300000202DE9F84F99460C9B82460E46BC
:1045B00015460A9F3BB9900000F0A2FC83460028F4
:1045C00000F0B48000E09B465C2000F099FC0446BB
:1045D00088B1AD00C0F830B0A52158462A46043D48
:1045E0000FF000FA236B04F133021D44731E0936E9
:1045F00025F0070505E0584600F0E0FC96E0B342E0
:1046000006D013F8011F02F8011F19780029F6D10E
:10461000042F4FF0000BB84604F1040628BF4FF0FA
:10462000040884F83DB03046C4F84CB0C4F82C807F
:10463000C4F84880FFF74DFC04F11800FFF749FC6F
:10464000C8F10503C4F854B02846A361514624615B
:104650004A466462C4F850B084F858B000F006FDD1
:104660000B9B206003B11C6000F020FD314A324DED
:104670001368DFF8EC90013313602B683BBB2C60B0
:104680001268012A2BD1984609EB080008F114089A
:10469000FFF714FCB8F1640FF6D1DFF8C8A0DFF81B
:1046A000C8805046FFF70AFC4046FFF707FC234846
:1046B000FFF704FC2248FFF701FC2248FFF7FEFB4E
:1046C000214BC3F800A0214BC3F8008007E0204B2A
:1046D0001B6823B92B68DB6ABB4200D82C601D4ADB
:1046E0001D491368013313602364E26A01240B68D7
:1046F00004FA02F0034314200B60314600FB0290E1
:10470000FFF7EAFB00F0F8FC114B1B685BB12B686C
:10471000DB6ABB4207D24FF08052104B1A60BFF3E6
:104720004F8FBFF36F8F2046BDE8F88F4FF0FF30FB
:10473000BDE8F88F10390020E8380020EC38002060
:10474000D4380020143900203838002008390020DF
:104750003C3800200C3900202839002004ED00E00E
:1047600070380020443800205838002070B5049C70
:10477000059E069D50B94FF4A07372B683F311885D
:10478000BFF36F8FBFF34F8F62B6FEE7042C0AD9D9
:104790004FF4A07372B683F31188BFF36F8FBFF32A
:1047A0004F8F62B6FEE7049405960695BDE870400B
:1047B000FFF7F8BE1FB500241548164940220094A3
:1047C000234601940294FFF7EDFE012812D14FF425
:1047D000A07372B683F31188BFF36F8FBFF34F8F4F
:1047E00062B60D4B18600D4B1C6004B0BDE8104064
:1047F00000F0F8BC50B94FF4A07372B683F311887F
:10480000BFF36F8FBFF34F8F62B6FEE704B010BDEA
:10481000B14A0008F48401083C3800200439002023
:10482000024A136801331360704700BF003900204B
:104830003A4B2DE9F0471B68002B41D1384B1A68E1
:1048400001321A601F68CFB9364B1A68126852B12C
:104850004FF4A07372B683F31188BFF36F8FBFF369
:104860004F8F62B6FEE7304A196810681860116011
:104870002E4A136801331360FFF75AFE2C4E0024B2
:10488000DFF8BC803368DFF8BC909F420DD3254B26
:104890001A68126812B94FF0FF3305E01B68DB6835
:1048A000DD686B689F4211D23360D9F80030DA6A54
:1048B0001423534358F80330022B28BF012425E06A
:1048C0001C4A00241368013313601FE005F1040A39
:1048D0005046FFF725FBAB6A1BB105F11800FFF747
:1048E0001FFBE96A012314488B40026813430360ED
:1048F000142000FB01805146FFF7EEFAD9F8003092
:10490000EA6ADB6A9A4228BF0124C0E70B4B1B68A6
:10491000002B18BF01242046BDE8F0870039002095
:1049200004390020383800200839002034380020AD
:10493000300000206C380020283900202C3900205D
:1049400070380020E838002070B5304C236853B927
:104950004FF4A07372B683F31188BFF36F8FBFF368
:104960004F8F62B6FEE700F0A1FB2368013B236096
:1049700023680BB1002445E0254B1B68002BF9D0C0
:10498000244B1A680AB3DB680125DC68261D04F194
:104990001800FFF7C5FA3046FFF7C2FAE26A1E496F
:1049A00005FA02F00B68034314200B6031461B4BE1
:1049B00000FB0230FFF790FA194BE26A1B68DB6AD2
:1049C0009A42DDD3174B1D60DAE7174C2368ABB969
:1049D000144B1C68012CCDD14FF08052134B1A6040
:1049E000BFF34F8FBFF36F8F0CE0FFF721FF10B1C4
:1049F00001220C4B1A602368013B23602368002BC3
:104A0000F3D1E5E700F078FB204670BD00390020C7
:104A100010390020EC3800202839002070380020A0
:104A2000E83800202C3900206C38002004ED00E02C
:104A300038B5044640B94FF08052184B1A60BFF3A6
:104A40004F8FBFF36F8F38BD154B1B6853B14FF4B9
:104A5000A07372B683F31188BFF36F8FBFF34F8FCC
:104A600062B6FEE7FFF7DCFE0E4D0F4B1B682868B1
:104A70001C440430FFF754FA40B92B680B49D86A3C
:104A800001230A68834022EA03030B602046FFF7F4
:104A900061FDFFF759FF0028CDD038BD04ED00E0DF
:104AA00000390020E838002004390020283900208F
:104AB00008B5184C2368F3B1174DFFF7B1FE2E6807
:104AC000FFF742FF002EF4D000F0F0FAEB68DD684B
:104AD000281DFFF725FA114A1368013B136023686C
:104AE000013B236000F008FB286B00F067FA2846C2
:104AF00000F064FADDE70A4B1B68012B07D94FF081
:104B00008052084B1A60BFF34F8FBFF36F8FFDF7D2
:104B1000E7FDCEE740380020D438002010390020CF
:104B20007038002004ED00E038B50D46044608B9A1
:104B3000044B1C6800F0BAFA2565BDE8384000F067
:104B4000DBBA00BFE838002008B9044B1868036DD1
:104B50000BB1084618471846704700BFE8380020D8
:104B600038B5294B1A68294B12B101221A6038BD99
:104B7000274C01211A602068FFF7E6FF22682368AE
:104B800012681B6B9A4204D8206821683431FDF703
:104B9000A5FD236814221F49186B1D4D0EF058FE09
:104BA00020B1286829683431FDF798FD1A4B1B683D
:104BB000B3FA83F3DBB214221849C3F11F035A433B
:104BC0008D58881855B94FF4A07372B683F31188C5
:104BD000BFF36F8FBFF34F8F62B6FEE745680832B1
:104BE0006D680A449542456004BF6A6842601422B9
:104BF00002FB031300215B68DB6823602068BDE8CB
:104C00003840FFF7A1BF00BF003900202C39002039
:104C1000E8380020E084010828390020703800209E
:104C200038B50D4650B94FF4A07372B683F31188AE
:104C3000BFF36F8FBFF34F8F62B6FEE7114C216851
:104C40001831FFF755F920680430FFF769F940B9CA
:104C500023680D49D86A01230A68834022EA0303C6
:104C60000B606B1C06D1216808480431BDE8384050
:104C7000FFF732B9064B18682844BDE83840FFF703
:104C800069BC00BFE8380020283900201439002012
:104C90000439002038B5C368DC6854B94FF4A073F8
:104CA00072B683F31188BFF36F8FBFF34F8F62B675
:104CB000FEE704F118052846FFF732F9114B1B688F
:104CC0007BB9251D2846FFF72BF90F48E16A012320
:104CD00002688B401343036014200C4B00FB01302F
:104CE00000E00B482946FFF7F7F80A4BE26A1B6819
:104CF000DB6A9A4203D90120074B186038BD0020B7
:104D000038BD00BF0039002028390020703800204D
:104D1000EC380020E83800202C39002050B94FF43E
:104D2000A07372B683F31188BFF36F8FBFF34F8FF9
:104D300062B6FEE7034B1B680360034B1B684360CE
:104D4000704700BF343800200439002038B50D46C4
:104D5000044650B94FF4A07372B683F31188BFF3C1
:104D60006F8FBFF34F8F62B6FEE751B94FF4A07358
:104D700072B683F31188BFF36F8FBFF34F8F62B6A4
:104D8000FEE700F093F90E4B19682B685A1C10D0FF
:104D90000C4A106822689042626801D091420AD29F
:104DA000881A984207D2521A204613442B60FFF704
:104DB000B5FF002400E0012400F09EF9204638BD34
:104DC00004390020343800200122014B1A6070475A
:104DD0002C3900202DE9F0410446002838D01D4D23
:104DE000C36A2A68D26A934232D28269002A04DBFB
:104DF0002A68D26AC2F105028261174E14276269DD
:104E000007FB03639A4220D104F104084046FFF7F0
:104E100087F8124B48B9E06A4743F2592AB9012290
:104E20001968824021EA02021A602A68012041467C
:104E3000D26AE26290401C6820431860142000FB94
:104E40000260BDE8F041FFF747B82B68DB6AE36218
:104E5000BDE8F081E83800207038002028390020B3
:104E600070B5044608B9002070BDC36C53B94FF447
:104E7000A07372B683F31188BFF36F8FBFF34F8FA8
:104E800062B6FEE7C16A013B826CC3649142EAD01C
:104E9000002BE8D1051D2846FFF742F81049114ABA
:104EA00050B9E66A14237343CB582BB90123106819
:104EB000B34020EA03031360A36CC3F10500E3626F
:104EC000A0610124106804FA03F630431060142036
:104ED00000FB03102946FEF7FFFF204670BD00BF10
:104EE0007038002028390020044B1A681AB119685C
:104EF000CA6C0132CA641868704700BFE8380020E5
:104F000070B50446FFF78CFC2748016871B9274B40
:104F100041F27455264A23F0070351601360254A75
:104F200083E82400012382E8220003602CB10834C6
:104F300063071CBF24F007040834621E41F2725359
:104F40009A4229D81A4A13685968A14203D31949C9
:104F50008B4206D120E019680029F8D01A460B468A
:104F6000F2E719681568116059680835091B10299E
:104F70000CD91A1951605C600D495468086846687C
:104F8000A64201D20146F9E710600A600A495B684F
:104F90000A68D21A0A6000E00025FFF7D5FC0DB9B7
:104FA000FDF79DFB284670BD3039002044390020B4
:104FB00034390020B84E00203400002038B50446B3
:104FC000C8B1A0F10805FFF72BFC54F8041C0A4BEC
:104FD0001A685068884201D21346F9E744F8082C51
:104FE000064A1D60136854F8041C0B441360BDE8A6
:104FF0003840FFF7A9BC38BD343900203400002008
:105000000C4B1B6801330AD04FF4A07372B683F3C4
:105010001188BFF36F8FBFF34F8F62B6FEE74FF477
:10502000A07372B683F31188BFF36F8FBFF34F8FF6
:1050300062B6FEE73800002006480068006880F38A
:10504000088862B661B6BFF34F8FBFF36F8F00DF82
:1050500000BF000008ED00E0DFF80C00016841F43B
:10506000700101607047000088ED00E04FF0807330
:1050700040F8202C00E90A00034B443883636FF0AA
:1050800002030362704700BF01500008064B196815
:105090000868B0E8F04F80F30988BFF36F8F4FF0D6
:1050A000000080F311887047E83800204FF4A073A7
:1050B00072B683F31188BFF36F8FBFF34F8F62B661
:1050C0000B4A13680133012B13600FD1094B1B6886
:1050D00013F0FF0F0AD04FF4A07372B683F3118858
:1050E000BFF36F8FBFF34F8F62B6FEE7704700BF0D
:1050F0003800002004ED00E0094A136853B94FF46A
:10510000A07372B683F31188BFF36F8FBFF34F8F15
:1051100062B6FEE7013B13600BB983F31188704759
:1051200038000020EFF30980BFF36F8F154B1A682A
:105130001EF0100F08BF20ED108A20E9F04F10601C
:105140004DF8043D4FF4A07072B680F31188BFF3A0
:105150004F8FBFF36F8F62B6FFF702FD4FF0000075
:1051600080F3118808BC19680868B0E8F04F1EF099
:10517000100F08BFB0EC108A80F30988BFF36F8F5F
:10518000704700BFE838002008B5EFF311834FF4F3
:10519000A07272B682F31188BFF36F8FBFF34F8F87
:1051A00062B6FFF745FB18B14FF08052024B1A6010
:1051B000002383F3118808BD04ED00E0064B4FF493
:1051C0007A721B68B3FBF2F3044A013B13600722B7
:1051D000034B1A60704700BF6800002014E000E035
:1051E00010E000E0204B07B51A78D2B20192FF22FE
:1051F0001A701B781D4ADBB28DF803309DF803301E
:1052000003F0400313700723194A13609DF803103D
:10521000581E090607D59DF803305B00DBB28DF8F8
:1052200003300346F2E71B0203F4E0631360019BC3
:105230000D4ADBB213700F4B1A6842F47C021A60FD
:105240001A6842F07C421A60FFF7B8FF00220A4B4E
:105250001A60FFF701FF094A136843F040431360E7
:10526000FFF7EAFEFFF7CCFE00E400E0C04E0020AE
:10527000C44E002020ED00E03800002034EF00E0B4
:10528000EFF305830F2B10D9124A9B5C124A127858
:105290009A420AD94FF4A07372B683F31188BFF310
:1052A0006F8FBFF34F8F62B6FEE70C4B0C4A1B6843
:1052B000126803F4E06393420AD94FF4A07372B604
:1052C00083F31188BFF36F8FBFF34F8F62B6FEE792
:1052D000704700BFF0E300E0C04E00200CED00E09E
:1052E000C44E0020684620F007018D46FEE7684660
:1052F00020F007018D46FEE7684620F007018D4645
:10530000FEE7684620F007018D46FEE7684620F07C
:1053100007018D46FEE7684620F007018D46FEE74F
:10532000684620F007018D4601B5BDE8014085467D
:105330007047684620F007018D4601B5BDE8014081
:1053400085467047684620F007018D4601B5BDE8E7
:10535000014085467047684620F007018D4601B53B
:10536000BDE8014085467047684620F007018D463C
:1053700001B5BDE8014085467047684620F0070149
:105380008D4601B5BDE8014085467047684620F06E
:1053900007018D4601B5BDE8014085467047684666
:1053A00020F007018D4601B5BDE8014085467047F4
:1053B000684620F007018D4601B5BDE801408546ED
:1053C0007047684620F007018D4601B5BDE80140F1
:1053D00085467047684620F007018D4601B5BDE857
:1053E000014085467047684620F007018D4601B5AB
:1053F000BDE8014085467047684620F007018D46AC
:1054000001B5BDE8014085467047684620F00701B8
:105410008D4601B5BDE8014085467047684620F0DD
:1054200007018D4601B5BDE80140854670476846D5
:1054300020F007018D4601B5BDE801408546704763
:10544000684620F007018D4601B5BDE8014085465C
:105450007047684620F007018D4601B5BDE8014060
:1054600085467047684620F007018D4601B5BDE8C6
:10547000014085467047684620F007018D4601B51A
:10548000BDE8014085467047684620F007018D461B
:1054900001B5BDE8014085467047684620F0070128
:1054A0008D4601B5BDE8014085467047684620F04D
:1054B00007018D4601B5BDE8014085467047684645
:1054C00020F007018D4601B5BDE8014085467047D3
:1054D000684620F007018D4601B5BDE801408546CC
:1054E0007047684620F007018D4601B5BDE80140D0
:1054F00085467047684620F007018D4601B5BDE836
:10550000014085467047684620F007018D4601B589
:10551000BDE8014085467047684620F007018D468A
:1055200001B5BDE8014085467047684620F0070197
:105530008D4601B5BDE8014085467047684620F0BC
:1055400007018D4601B5BDE80140854670476846B4
:1055500020F007018D4601B5BDE801408546704742
:10556000684620F007018D4601B5BDE8014085463B
:105570007047684620F007018D4601B5BDE801403F
:1055800085467047684620F007018D4601B5BDE8A5
:10559000014085467047684620F007018D4601B5F9
:1055A000BDE8014085467047684620F007018D46FA
:1055B00001B5BDE8014085467047684620F0070107
:1055C0008D4601B5BDE8014085467047684620F02C
:1055D00007018D4601B5BDE8014085467047684624
:1055E00020F007018D4601B5BDE8014085467047B2
:1055F000684620F007018D4601B5BDE801408546AB
:105600007047684620F007018D4601B5BDE80140AE
:1056100085467047684620F007018D4601B5BDE814
:10562000014085467047684620F007018D4601B568
:10563000BDE8014085467047684620F007018D4669
:1056400001B5BDE8014085467047684620F0070176
:105650008D4601B5BDE8014085467047684620F09B
:1056600007018D4601B5BDE8014085467047684693
:1056700020F007018D4601B5BDE801408546704721
:10568000684620F007018D4601B5BDE8014085461A
:105690007047684620F007018D4601B5BDE801401E
:1056A00085467047684620F007018D4601B5BDE884
:1056B000014085467047684620F007018D4601B5D8
:1056C000BDE8014085467047684620F007018D46D9
:1056D00001B5BDE8014085467047684620F00701E6
:1056E0008D4601B5BDE8014085467047684620F00B
:1056F00007018D4601B5BDE8014085467047684603
:1057000020F007018D4601B5BDE801408546704790
:10571000684620F007018D4601B5BDE80140854689
:105720007047684620F007018D4601B5BDE801408D
:1057300085467047684620F007018D4601B5BDE8F3
:10574000014085467047684620F007018D4601B547
:10575000BDE8014085467047684620F007018D4648
:1057600001B5BDE8014085467047684620F0070155
:105770008D4601B5BDE8014085467047684620F07A
:1057800007018D4601B5BDE8014085467047684672
:1057900020F007018D4601B5BDE801408546704700
:1057A000684620F007018D4601B5BDE801408546F9
:1057B0007047684620F007018D4601B5BDE80140FD
:1057C00085467047684620F007018D4601B5BDE863
:1057D000014085467047684620F007018D4601B5B7
:1057E000BDE8014085467047684620F007018D46B8
:1057F00001B5BDE8014085467047684620F00701C5
:105800008D4601B5BDE8014085467047684620F0E9
:1058100007018D4601B5BDE80140854670476846E1
:1058200020F007018D4601B5BDE80140854670476F
:10583000684620F007018D4601B5BDE80140854668
:105840007047684620F007018D4601B5BDE801406C
:1058500085467047684620F007018D4601B5BDE8D2
:10586000014085467047684620F007018D4601B526
:10587000BDE8014085467047684620F007018D4627
:1058800001B5BDE8014085467047684620F0070134
:105890008D4601B5BDE8014085467047684620F059
:1058A00007018D4601B5BDE8014085467047684651
:1058B00020F007018D4601B5BDE8014085467047DF
:1058C000684620F007018D4601B5BDE801408546D8
:1058D0007047684620F007018D4601B5BDE80140DC
:1058E00085467047684620F007018D4601B5BDE842
:1058F000014085467047684620F007018D4601B596
:10590000BDE8014085467047684620F007018D4696
:1059100001B5BDE8014085467047684620F00701A3
:105920008D4601B5BDE8014085467047684620F0C8
:1059300007018D4601B5BDE80140854670476846C0
:1059400020F007018D4601B5BDE80140854670474E
:10595000684620F007018D4601B5BDE80140854647
:10596000704700006846154A20F007018D4679B55A
:10597000134B14498B4204D252F8041F43F8041B02
:10598000F7E7114B114A934203D2002243F8042B4C
:10599000F8E70F4B00250F4C1E46E41AA410A54251
:1059A00004DA56F8253001359847F8E704F036F860
:1059B000FCF7C0FEBDE879408546704740AD010860
:1059C00000000020CC100020CC1000201453002038
:1059D0002CAD01083CAD010870B58AB0054602F057
:1059E00049F9002840F09280494B0026494C9D42DD
:1059F000AE602E610CBF484A484A9D426E612A60E3
:105A0000474AEE616A604FF001022E62EA60236B42
:105A10003BD143F08003434805A92363236B0796DA
:105A200003F080030193019B8023059312230693C7
:105A3000022308930423099301F01AFD4FF48073A5
:105A4000384805A9059301F013FD236C0F21324658
:105A5000482043F400032364236C03F400030293FF
:105A6000029B236A43F400032362236A23F40003A6
:105A7000236201F0B5F9482001F0EAF949200F212D
:105A8000324601F0ADF949203BE043F002032648DD
:105A900005A92363236B079603F002030393039B7B
:105AA0004FF4807305931223069302230893042373
:105AB000099301F0DDFC4FF400731B4805A9059321
:105AC00001F0D6FC236C0F2132461F2043F4001353
:105AD0002364236C03F400130493049B236A43F4AC
